{
	"data": {
		"bytecode": {
			"linkReferences": {},
			"object": "608060405234801561001057600080fd5b506104e5806100206000396000f3fe608060405234801561001057600080fd5b50600436106100415760003560e01c806302ffde85146100465780634b01b86c14610076578063cad0899b146100a6575b600080fd5b610060600480360381019061005b919061021a565b6100d6565b60405161006d91906102ef565b60405180910390f35b610090600480360381019061008b919061021a565b610194565b60405161009d91906102ef565b60405180910390f35b6100c060048036038101906100bb919061021a565b6101ea565b6040516100cd91906102ef565b60405180910390f35b6000828260006002836100e991906103b2565b14610129576040517f08c379a0000000000000000000000000000000000000000000000000000000008152600401610120906102cf565b60405180910390fd5b600060028261013891906103b2565b14610178576040517f08c379a000000000000000000000000000000000000000000000000000000000815260040161016f906102af565b60405180910390fd5b600084866101869190610352565b905080935050505092915050565b60008082846101a39190610352565b90507f2cde3e0dd8cebbe34e8a1a4089e701eab0e156fcbb3109ed8befc940b68aab7c8484836040516101d89392919061030a565b60405180910390a18091505092915050565b60008082846101f99190610352565b90508091505092915050565b60008135905061021481610498565b92915050565b6000806040838503121561023157610230610441565b5b600061023f85828601610205565b925050602061025085828601610205565b9150509250929050565b6000610267601a83610341565b915061027282610446565b602082019050919050565b600061028a601983610341565b91506102958261046f565b602082019050919050565b6102a9816103a8565b82525050565b600060208201905081810360008301526102c88161025a565b9050919050565b600060208201905081810360008301526102e88161027d565b9050919050565b600060208201905061030460008301846102a0565b92915050565b600060608201905061031f60008301866102a0565b61032c60208301856102a0565b61033960408301846102a0565b949350505050565b600082825260208201905092915050565b600061035d826103a8565b9150610368836103a8565b9250827fffffffffffffffffffffffffffffffffffffffffffffffffffffffffffffffff0382111561039d5761039c6103e3565b5b828201905092915050565b6000819050919050565b60006103bd826103a8565b91506103c8836103a8565b9250826103d8576103d7610412565b5b828206905092915050565b7f4e487b7100000000000000000000000000000000000000000000000000000000600052601160045260246000fd5b7f4e487b7100000000000000000000000000000000000000000000000000000000600052601260045260246000fd5b600080fd5b7f546865207365636f6e64206e6f2e206973206e6f74206576656e000000000000600082015250565b7f546865206669727374206e6f2e206973206e6f74206576656e00000000000000600082015250565b6104a1816103a8565b81146104ac57600080fd5b5056fea26469706673582212200c8689fbc4e4147228290ad5dc58468d21c19663626f178b2f3940854f3c61b264736f6c63430008070033",
			"opcodes": "PUSH1 0x80 PUSH1 0x40 MSTORE CALLVALUE DUP1 ISZERO PUSH2 0x10 JUMPI PUSH1 0x0 DUP1 REVERT JUMPDEST POP PUSH2 0x4E5 DUP1 PUSH2 0x20 PUSH1 0x0 CODECOPY PUSH1 0x0 RETURN INVALID PUSH1 0x80 PUSH1 0x40 MSTORE CALLVALUE DUP1 ISZERO PUSH2 0x10 JUMPI PUSH1 0x0 DUP1 REVERT JUMPDEST POP PUSH1 0x4 CALLDATASIZE LT PUSH2 0x41 JUMPI PUSH1 0x0 CALLDATALOAD PUSH1 0xE0 SHR DUP1 PUSH4 0x2FFDE85 EQ PUSH2 0x46 JUMPI DUP1 PUSH4 0x4B01B86C EQ PUSH2 0x76 JUMPI DUP1 PUSH4 0xCAD0899B EQ PUSH2 0xA6 JUMPI JUMPDEST PUSH1 0x0 DUP1 REVERT JUMPDEST PUSH2 0x60 PUSH1 0x4 DUP1 CALLDATASIZE SUB DUP2 ADD SWAP1 PUSH2 0x5B SWAP2 SWAP1 PUSH2 0x21A JUMP JUMPDEST PUSH2 0xD6 JUMP JUMPDEST PUSH1 0x40 MLOAD PUSH2 0x6D SWAP2 SWAP1 PUSH2 0x2EF JUMP JUMPDEST PUSH1 0x40 MLOAD DUP1 SWAP2 SUB SWAP1 RETURN JUMPDEST PUSH2 0x90 PUSH1 0x4 DUP1 CALLDATASIZE SUB DUP2 ADD SWAP1 PUSH2 0x8B SWAP2 SWAP1 PUSH2 0x21A JUMP JUMPDEST PUSH2 0x194 JUMP JUMPDEST PUSH1 0x40 MLOAD PUSH2 0x9D SWAP2 SWAP1 PUSH2 0x2EF JUMP JUMPDEST PUSH1 0x40 MLOAD DUP1 SWAP2 SUB SWAP1 RETURN JUMPDEST PUSH2 0xC0 PUSH1 0x4 DUP1 CALLDATASIZE SUB DUP2 ADD SWAP1 PUSH2 0xBB SWAP2 SWAP1 PUSH2 0x21A JUMP JUMPDEST PUSH2 0x1EA JUMP JUMPDEST PUSH1 0x40 MLOAD PUSH2 0xCD SWAP2 SWAP1 PUSH2 0x2EF JUMP JUMPDEST PUSH1 0x40 MLOAD DUP1 SWAP2 SUB SWAP1 RETURN JUMPDEST PUSH1 0x0 DUP3 DUP3 PUSH1 0x0 PUSH1 0x2 DUP4 PUSH2 0xE9 SWAP2 SWAP1 PUSH2 0x3B2 JUMP JUMPDEST EQ PUSH2 0x129 JUMPI PUSH1 0x40 MLOAD PUSH32 0x8C379A000000000000000000000000000000000000000000000000000000000 DUP2 MSTORE PUSH1 0x4 ADD PUSH2 0x120 SWAP1 PUSH2 0x2CF JUMP JUMPDEST PUSH1 0x40 MLOAD DUP1 SWAP2 SUB SWAP1 REVERT JUMPDEST PUSH1 0x0 PUSH1 0x2 DUP3 PUSH2 0x138 SWAP2 SWAP1 PUSH2 0x3B2 JUMP JUMPDEST EQ PUSH2 0x178 JUMPI PUSH1 0x40 MLOAD PUSH32 0x8C379A000000000000000000000000000000000000000000000000000000000 DUP2 MSTORE PUSH1 0x4 ADD PUSH2 0x16F SWAP1 PUSH2 0x2AF JUMP JUMPDEST PUSH1 0x40 MLOAD DUP1 SWAP2 SUB SWAP1 REVERT JUMPDEST PUSH1 0x0 DUP5 DUP7 PUSH2 0x186 SWAP2 SWAP1 PUSH2 0x352 JUMP JUMPDEST SWAP1 POP DUP1 SWAP4 POP POP POP POP SWAP3 SWAP2 POP POP JUMP JUMPDEST PUSH1 0x0 DUP1 DUP3 DUP5 PUSH2 0x1A3 SWAP2 SWAP1 PUSH2 0x352 JUMP JUMPDEST SWAP1 POP PUSH32 0x2CDE3E0DD8CEBBE34E8A1A4089E701EAB0E156FCBB3109ED8BEFC940B68AAB7C DUP5 DUP5 DUP4 PUSH1 0x40 MLOAD PUSH2 0x1D8 SWAP4 SWAP3 SWAP2 SWAP1 PUSH2 0x30A JUMP JUMPDEST PUSH1 0x40 MLOAD DUP1 SWAP2 SUB SWAP1 LOG1 DUP1 SWAP2 POP POP SWAP3 SWAP2 POP POP JUMP JUMPDEST PUSH1 0x0 DUP1 DUP3 DUP5 PUSH2 0x1F9 SWAP2 SWAP1 PUSH2 0x352 JUMP JUMPDEST SWAP1 POP DUP1 SWAP2 POP POP SWAP3 SWAP2 POP POP JUMP JUMPDEST PUSH1 0x0 DUP2 CALLDATALOAD SWAP1 POP PUSH2 0x214 DUP2 PUSH2 0x498 JUMP JUMPDEST SWAP3 SWAP2 POP POP JUMP JUMPDEST PUSH1 0x0 DUP1 PUSH1 0x40 DUP4 DUP6 SUB SLT ISZERO PUSH2 0x231 JUMPI PUSH2 0x230 PUSH2 0x441 JUMP JUMPDEST JUMPDEST PUSH1 0x0 PUSH2 0x23F DUP6 DUP3 DUP7 ADD PUSH2 0x205 JUMP JUMPDEST SWAP3 POP POP PUSH1 0x20 PUSH2 0x250 DUP6 DUP3 DUP7 ADD PUSH2 0x205 JUMP JUMPDEST SWAP2 POP POP SWAP3 POP SWAP3 SWAP1 POP JUMP JUMPDEST PUSH1 0x0 PUSH2 0x267 PUSH1 0x1A DUP4 PUSH2 0x341 JUMP JUMPDEST SWAP2 POP PUSH2 0x272 DUP3 PUSH2 0x446 JUMP JUMPDEST PUSH1 0x20 DUP3 ADD SWAP1 POP SWAP2 SWAP1 POP JUMP JUMPDEST PUSH1 0x0 PUSH2 0x28A PUSH1 0x19 DUP4 PUSH2 0x341 JUMP JUMPDEST SWAP2 POP PUSH2 0x295 DUP3 PUSH2 0x46F JUMP JUMPDEST PUSH1 0x20 DUP3 ADD SWAP1 POP SWAP2 SWAP1 POP JUMP JUMPDEST PUSH2 0x2A9 DUP2 PUSH2 0x3A8 JUMP JUMPDEST DUP3 MSTORE POP POP JUMP JUMPDEST PUSH1 0x0 PUSH1 0x20 DUP3 ADD SWAP1 POP DUP2 DUP2 SUB PUSH1 0x0 DUP4 ADD MSTORE PUSH2 0x2C8 DUP2 PUSH2 0x25A JUMP JUMPDEST SWAP1 POP SWAP2 SWAP1 POP JUMP JUMPDEST PUSH1 0x0 PUSH1 0x20 DUP3 ADD SWAP1 POP DUP2 DUP2 SUB PUSH1 0x0 DUP4 ADD MSTORE PUSH2 0x2E8 DUP2 PUSH2 0x27D JUMP JUMPDEST SWAP1 POP SWAP2 SWAP1 POP JUMP JUMPDEST PUSH1 0x0 PUSH1 0x20 DUP3 ADD SWAP1 POP PUSH2 0x304 PUSH1 0x0 DUP4 ADD DUP5 PUSH2 0x2A0 JUMP JUMPDEST SWAP3 SWAP2 POP POP JUMP JUMPDEST PUSH1 0x0 PUSH1 0x60 DUP3 ADD SWAP1 POP PUSH2 0x31F PUSH1 0x0 DUP4 ADD DUP7 PUSH2 0x2A0 JUMP JUMPDEST PUSH2 0x32C PUSH1 0x20 DUP4 ADD DUP6 PUSH2 0x2A0 JUMP JUMPDEST PUSH2 0x339 PUSH1 0x40 DUP4 ADD DUP5 PUSH2 0x2A0 JUMP JUMPDEST SWAP5 SWAP4 POP POP POP POP JUMP JUMPDEST PUSH1 0x0 DUP3 DUP3 MSTORE PUSH1 0x20 DUP3 ADD SWAP1 POP SWAP3 SWAP2 POP POP JUMP JUMPDEST PUSH1 0x0 PUSH2 0x35D DUP3 PUSH2 0x3A8 JUMP JUMPDEST SWAP2 POP PUSH2 0x368 DUP4 PUSH2 0x3A8 JUMP JUMPDEST SWAP3 POP DUP3 PUSH32 0xFFFFFFFFFFFFFFFFFFFFFFFFFFFFFFFFFFFFFFFFFFFFFFFFFFFFFFFFFFFFFFFF SUB DUP3 GT ISZERO PUSH2 0x39D JUMPI PUSH2 0x39C PUSH2 0x3E3 JUMP JUMPDEST JUMPDEST DUP3 DUP3 ADD SWAP1 POP SWAP3 SWAP2 POP POP JUMP JUMPDEST PUSH1 0x0 DUP2 SWAP1 POP SWAP2 SWAP1 POP JUMP JUMPDEST PUSH1 0x0 PUSH2 0x3BD DUP3 PUSH2 0x3A8 JUMP JUMPDEST SWAP2 POP PUSH2 0x3C8 DUP4 PUSH2 0x3A8 JUMP JUMPDEST SWAP3 POP DUP3 PUSH2 0x3D8 JUMPI PUSH2 0x3D7 PUSH2 0x412 JUMP JUMPDEST JUMPDEST DUP3 DUP3 MOD SWAP1 POP SWAP3 SWAP2 POP POP JUMP JUMPDEST PUSH32 0x4E487B7100000000000000000000000000000000000000000000000000000000 PUSH1 0x0 MSTORE PUSH1 0x11 PUSH1 0x4 MSTORE PUSH1 0x24 PUSH1 0x0 REVERT JUMPDEST PUSH32 0x4E487B7100000000000000000000000000000000000000000000000000000000 PUSH1 0x0 MSTORE PUSH1 0x12 PUSH1 0x4 MSTORE PUSH1 0x24 PUSH1 0x0 REVERT JUMPDEST PUSH1 0x0 DUP1 REVERT JUMPDEST PUSH32 0x546865207365636F6E64206E6F2E206973206E6F74206576656E000000000000 PUSH1 0x0 DUP3 ADD MSTORE POP JUMP JUMPDEST PUSH32 0x546865206669727374206E6F2E206973206E6F74206576656E00000000000000 PUSH1 0x0 DUP3 ADD MSTORE POP JUMP JUMPDEST PUSH2 0x4A1 DUP2 PUSH2 0x3A8 JUMP JUMPDEST DUP2 EQ PUSH2 0x4AC JUMPI PUSH1 0x0 DUP1 REVERT JUMPDEST POP JUMP INVALID LOG2 PUSH5 0x6970667358 0x22 SLT KECCAK256 0xC DUP7 DUP10 0xFB 0xC4 0xE4 EQ PUSH19 0x28290AD5DC58468D21C19663626F178B2F3940 DUP6 0x4F EXTCODECOPY PUSH2 0xB264 PUSH20 0x6F6C634300080700330000000000000000000000 "
		},
		"gasEstimates": {
			"creation": {
				"codeDepositCost": "250600",
				"executionCost": "294",
				"totalCost": "250894"
			},
			"external": {
				"onlyevensum(uint256,uint256)": "infinite",
				"sum(uint256,uint256)": "infinite",
				"sumwithevent(uint256,uint256)": "infinite"
			}
		},
		"methodIdentifiers": {
			"onlyevensum(uint256,uint256)": "02ffde85",
			"sum(uint256,uint256)": "cad0899b",
			"sumwithevent(uint256,uint256)": "4b01b86c"
		}
	},
	"abi": [
		{
			"anonymous": false,
			"inputs": [
				{
					"indexed": false,
					"internalType": "uint256",
					"name": "_a",
					"type": "uint256"
				},
				{
					"indexed": false,
					"internalType": "uint256",
					"name": "_b",
					"type": "uint256"
				},
				{
					"indexed": false,
					"internalType": "uint256",
					"name": "_sum",
					"type": "uint256"
				}
			],
			"name": "summation",
			"type": "event"
		},
		{
			"inputs": [
				{
					"internalType": "uint256",
					"name": "_a",
					"type": "uint256"
				},
				{
					"internalType": "uint256",
					"name": "_b",
					"type": "uint256"
				}
			],
			"name": "onlyevensum",
			"outputs": [
				{
					"internalType": "uint256",
					"name": "",
					"type": "uint256"
				}
			],
			"stateMutability": "pure",
			"type": "function"
		},
		{
			"inputs": [
				{
					"internalType": "uint256",
					"name": "_a",
					"type": "uint256"
				},
				{
					"internalType": "uint256",
					"name": "_b",
					"type": "uint256"
				}
			],
			"name": "sum",
			"outputs": [
				{
					"internalType": "uint256",
					"name": "",
					"type": "uint256"
				}
			],
			"stateMutability": "pure",
			"type": "function"
		},
		{
			"inputs": [
				{
					"internalType": "uint256",
					"name": "_a",
					"type": "uint256"
				},
				{
					"internalType": "uint256",
					"name": "_b",
					"type": "uint256"
				}
			],
			"name": "sumwithevent",
			"outputs": [
				{
					"internalType": "uint256",
					"name": "",
					"type": "uint256"
				}
			],
			"stateMutability": "nonpayable",
			"type": "function"
		}
	]
}